:020000040800F2
:100000000050002021020008290200082D020008EB
:100010007502000879020008C10200080000000013
:1000200000000000000000000000000009030008BC
:100030000D0300080000000011030008951D0008D2
:1000400015180008151800081518000815180008DC
:1000500015180008151800081518000815180008CC
:1000600015180008151800081518000815180008BC
:1000700015180008151800081518000815180008AC
:10008000151800081518000815180008151800089C
:10009000151800081518000815180008151800088C
:1000A000151800081518000815180008151800087C
:1000B000151800081518000815180008151800086C
:1000C000151800081518000815180008151800085C
:1000D000151800081518000815180008151800084C
:1000E000A11D0008151800081518000800000000E0
:1000F0000000000000000000000000000000000000
:1001000000000000000000005FF808F100B583B0B7
:1001100001F0F8FA304B314A1360314A1360314B29
:10012000314A03E011681960043304322F498B42CD
:10013000F8D32A4B1A682E4B9A4204D1284B1A68DE
:100140002C4B9A4200D0FEE7234B2B4A13602B4ADC
:1001500013602B4B02E000221A600433294A9342B9
:10016000F9D3254B1B6813B9244B1B6803B1FEE779
:1001700001F0D4FA01A8694601F09EFA224B234D02
:10018000ED1AAD10002404E01F4B53F824309847BB
:100190000134A542F8DC1E4B1E4DED1AAD100024B3
:1001A00004E01B4B53F8243098470134A542F8DC97
:1001B0000198009901F0A6FC0546174B174CE41A6C
:1001C000A41004E0013C144B53F824309847002C51
:1001D000F8DC284601F04CFABABADECA000000206A
:1001E0007400002000000020E427000878000020B0
:1001F0007856341232547698780000201402002089
:1002000078000020180200204C0300084C0300086E
:100210004C0300084C0300084C0300084C03000882
:1002200008B5FFF773FF00BF00BEFEE71EF0040F26
:100230000CBFEFF30880EFF309807146364A104790
:100240002DE9F04182B007468846084C666BA56BE5
:10025000A46A074801F038FACDF8008038462146F4
:1002600032462B4601F05EFA00BEFEE700ED00E0EC
:100270001C27000800BEFEE71EF0040F0CBFEFF3C2
:100280000880EFF309807146244A10472DE9F041B8
:1002900082B007468846084C666BA56BA46A07487F
:1002A00001F012FACDF800803846214632462B463E
:1002B00001F038FA00BEFEE700ED00E02C27000850
:1002C0001EF0040F0CBFEFF30880EFF309807146B6
:1002D000134A10472DE9F04182B007468846084C82
:1002E000666BA56BA46A074801F0EEF9CDF80080B3
:1002F0003846214632462B4601F014FA00BEFEE78E
:1003000000ED00E03827000800BEFEE700BEFEE773
:1003100000BEFEE770470000410200088D020008A1
:04032000D5020008FA
:10032400E42700080000002078000020E4270008EB
:1003340000000010000000107800002018020020C7
:08034400000000100000001091
:10034C0010B5044600F070FF064BA3FB002080099B
:10035C0000F002FA4FF0FF302146002200F0BEF907
:10036C00002010BDD34D621008B5074B1A6842F03F
:10037C0010021A60032000F09FF90020FFF7E0FF45
:10038C0001F03CFC002008BD00200240024B1A6822
:10039C0001321A60704700BF7C000020014B1868C6
:1003AC00704700BF7C00002010B582B00190FFF7B1
:1003BC00F5FF0446FFF7F2FF001B019B9842F9D3AF
:1003CC0002B010BD38B50446002800F0918090F8BA
:1003DC00393013F0FF0F04D1002380F8383001F0CE
:1003EC0055FC022384F8393023681A6822F0020283
:1003FC001A6023681A6842F001021A60FFF7CEFFF8
:10040C0005460BE0FFF7CAFF401B0A2806D903205C
:10041C0084F83900002384F8383038BD23685A68D2
:10042C0012F0010FEED05A6812F0010F51D0A269F0
:10043C00012A01D0002200E08022E169012901D1CA
:10044C0042F04002216A012901D142F02002616A86
:10045C00012901D142F01002A16A012901D142F017
:10046C000802E16A012901D142F00402196821F065
:10047C00FC010A431A602368A168E26841EA0200A1
:10048C0022691043626910436268511E40EA0102FE
:10049C00DA6123681A6822F001021A60FFF77EFF06
:1004AC0005460BE0FFF77AFF401B0A2806D903200C
:1004BC0084F83900002384F8383038BD23685A6832
:1004CC0012F0010FEED05B6813F0010F03D1002383
:1004DC0002E0002300E001232BB10020E0630123A4
:1004EC0084F8393038BD042384F83930012038BD04
:1004FC00012038BDF8B504460E4690F83830012B73
:10050C0000F0D280012380F8383090F83930DBB21B
:10051C00222B03D1322380F8393002E0122380F8E9
:10052C00393023689A6812F0806F09D19A6812F0FA
:10053C00006F07D19A6812F0805F05D0022504E0A5
:10054C00002502E0012500E00425042D00F0A48024
:10055C0005F118021201995801F001019950236B11
:10056C009A685AB9216805F11802120188581F6857
:10057C00DB6843EA475303438B500FE0D4F800E0A9
:10058C0005F1180109015EF80170586842EAC002D1
:10059C00DB681A4347EA02034EF80130236B1A69F1
:1005AC0002F00F021A61226805F118031B011A44AC
:1005BC00516821F00F01516022681A445068216B78
:1005CC000969014351602068226BD77D917D090434
:1005DC0041EA0761577D41EA0721127D0A4329014F
:1005EC000844C0F888212068226B92F81BE0977EA3
:1005FC003F0447EA0E6792F819E047EA0E27127E8D
:10060C003A430144C1F88C212268D15841F00101D0
:10061C00D150FFF7C3FE07460FE0B6F1FF3F0CD0F9
:10062C0026B1FFF7BBFEC01BB04206D9032084F8ED
:10063C003900002384F83830F8BD3DB923689B6835
:10064C001A4A13409B1A18BF012310E0012D07D141
:10065C0023689B6816490B405B1A18BF012306E000
:10066C0023689B68134A13409B1A18BF0123002B65
:10067C00D3D194F83930DBB2322B06D1222384F853
:10068C003930002384F8383002E0012384F8393003
:10069C00002084F83800F8BD042384F83930002396
:1006AC0084F838300120F8BD0220F8BD03000004A6
:1006BC00000300080000031000F00700064AD3688E
:1006CC0023F4E0631B041B0C43EA002343F0BF63D9
:1006DC0043F40033D360704700ED00E030B4164BA8
:1006EC00DB68C3F30223C3F10705042D28BF0425DF
:1006FC001C1D062C01D9033B00E00023012404FA45
:10070C0005F5013D2940994004FA03F3013B1A40D9
:10071C000A43002806DA00F00F001201D2B2074B90
:10072C001A5407E01201D2B200F1604000F56140AA
:10073C0080F8002330BC704700ED00E014ED00E0C1
:10074C00420900F01F00012303FA00F0014B43F8AB
:10075C002200704700E100E00138B0F1807F0AD23E
:10076C00064B5860F021064A82F82310002098604E
:10077C0007221A6070470120704700BF10E000E0AC
:10078C0000ED00E0042805D1054B1A6842F0040284
:10079C001A607047024B1A6822F004021A60704704
:1007AC0010E000E0704700BF08B5FFF7FBFF08BD85
:1007BC00F0B482B000263346D8E001249C400A688D
:1007CC002240A24240F0D1804D68122D2DD00BD882
:1007DC00022D27D003D85DB3012D1ED035E0032D9B
:1007EC0030D0112D1BD030E0634FBD4220D008D843
:1007FC00A7F58017BD421BD007F58037BD4224D129
:10080C0016E05E4FBD4213D007F58037BD420FD0C6
:10081C00A7F58017BD4218D10AE0CE6815E0CE6866
:10082C00043612E0CE6808360FE0CE680C360CE0C9
:10083C008D684DB1012D02D10461082605E044619B
:10084C00082602E0002600E00426FF2A01D8044610
:10085C0000E0041DFF2A01D89D0002E0A3F1080569
:10086C00AD0027684FF00F0C0CFA05FC27EA0C07BB
:10087C0006FA05F53D4325604C6814F0805F74D092
:10088C003F4CA56945F00105A561A46904F001047C
:10089C000194019C9C08A71C3A4D55F8277003F055
:1008AC000305AD004FF00F0C0CFA05FC27EA0C0702
:1008BC00DFF8D8C0604517D00CF5806C604510D0BF
:1008CC000CF5806C604509D00CF5806C604502D14C
:1008DC004FF0030C0AE04FF0040C07E04FF0020C51
:1008EC0004E04FF0010C01E04FF0000C0CFA05F5A0
:1008FC003D430234234F47F824504C6814F4803F96
:10090C0004D0214C25681543256004E01E4C256855
:10091C0025EA020525604C6814F4003F04D01A4CFB
:10092C0065681543656004E0174C656825EA0205A7
:10093C0065604C6814F4801F04D0134CA5681543F3
:10094C00A56004E0104CA56825EA0205A5604C687A
:10095C0014F4001F04D00C4CE5682A43E26004E058
:10096C00094CE56825EA0202E26001330F2B7FF6A1
:10097C0024AF02B0F0BC7047000021100000311011
:10098C00001002400000014000040140000801403A
:10099C000AB101617047090401617047704700BFDB
:1009AC0008B5044B5B69034203D0024B5861FFF757
:1009BC00F5FF08BD0004014030B583B00446036860
:1009CC0013F0010F00F09980B44B5B6803F00C033B
:1009DC00042B0AD0B14B5B6803F00C03082B1BD122
:1009EC00AE4B5B6813F4803F16D04FF4003393FA90
:1009FC00A3F3AA4B1A684FF4003393FAA3F3B3FA98
:100A0C0083F303F01F0322FA03F313F0010F74D0E6
:100A1C006368002B71D1A5E26368B3F5803F08D100
:100A2C0003F1804303F588331A6842F480321A606C
:100A3C0026E063B903F1804303F504331A6822F40A
:100A4C0080321A601A6822F480221A6018E0B3F51A
:100A5C00A02F0CD103F18043A3F53C331A6842F468
:100A6C0080221A601A6842F480321A6008E08B4BBC
:100A7C001A6822F480321A601A6822F480221A60F2
:100A8C006368EBB1FFF78AFC054605E0FFF786FCCF
:100A9C00401B642800F268824FF4003393FAA3F3EE
:100AAC007E4B1A684FF4003393FAA3F3B3FA83F333
:100ABC0003F01F0322FA03F313F0010FE6D01CE03E
:100ACC00FFF76CFC054605E0FFF768FC401B64284B
:100ADC0000F24C824FF4003393FAA3F36F4B1A6875
:100AEC004FF4003393FAA3F3B3FA83F303F01F0329
:100AFC0022FA03F313F0010FE6D1236813F0020F6F
:100B0C0000F09080654B5B6813F00C0F0AD0634BC0
:100B1C005B6803F00C03082B27D1604B5B6813F464
:100B2C00803F22D1022393FAA3F35C4B1A68022371
:100B3C0093FAA3F3B3FA83F303F01F0322FA03F33C
:100B4C0013F0010F03D02369012B40F01182534B9A
:100B5C00196821F0F8016269F82090FAA0F0B0FA57
:100B6C0080F082400A431A605CE023699BB3012247
:100B7C0092FAA2F3B3FA83F39B0003F1844303F5D7
:100B8C0084031A60FFF70AFC054605E0FFF706FC34
:100B9C00401B022800F2EE81022393FAA3F33F4B91
:100BAC001A68022393FAA3F3B3FA83F303F01F0337
:100BBC0022FA03F313F0010FE8D0384B196821F037
:100BCC00F8016269F82090FAA0F0B0FA80F0824047
:100BDC000A431A6026E0012393FAA3F3B3FA83F3D2
:100BEC009B0003F1844303F5840300221A60FFF792
:100BFC00D5FB054605E0FFF7D1FB401B022800F2B0
:100C0C00BB81022393FAA3F3244B1A68022393FAB1
:100C1C00A3F3B3FA83F303F01F0322FA03F313F0E5
:100C2C00010FE8D1236813F0080F53D0A3693BB32D
:100C3C00012393FAA3F1B1FA81F1194A42F8213058
:100C4C00FFF7ACFB054605E0FFF7A8FB401B0228AD
:100C5C0000F29481022393FAA3F293FAA3F20F4ABF
:100C6C00526A93FAA3F3B3FA83F303F01F0322FA45
:100C7C0003F313F0010FE7D00120FFF795FB29E0F8
:100C8C00012292FAA2F2B2FA82F20021044B43F84A
:100C9C002210FFF783FB05460AE000BF001002405C
:100CAC0080044242FFF77AFB401B022800F2688165
:100CBC00022393FAA3F293FAA3F2BB4A526A93FA71
:100CCC00A3F3B3FA83F303F01F0322FA03F313F035
:100CDC00010FE7D1236813F0040F00F09F80B24B93
:100CEC00DA6942F08052DA61DB6903F080530193D8
:100CFC00019BAE4B1A6842F480721A60FFF74EFBF0
:100D0C00054605E0FFF74AFB401B642800F23A81D8
:100D1C00A64B1B6813F4807FF4D0E368012B05D13C
:100D2C00A14B1A6A42F001021A6222E063B903F184
:100D3C00804303F504331A6A22F001021A621A6A1C
:100D4C0022F004021A6214E0052B09D1964B1A6AA0
:100D5C0042F004021A621A6A42F001021A6208E0B6
:100D6C00914B1A6A22F001021A621A6A22F00402EA
:100D7C001A62E3684BB3FFF711FB054607E0FFF778
:100D8C000DFB401B41F28833984200F2FD80022398
:100D9C0093FAA3F293FAA3F3B3FA83F343F0400369
:100DAC005B09022B02D1804B1A6A01E07E4B5A6A16
:100DBC00022393FAA3F3B3FA83F303F01F0322FA8B
:100DCC0003F313F0010FDAD028E0FFF7E7FA05463A
:100DDC0007E0FFF7E3FA401B41F28833984200F238
:100DEC00D580022393FAA3F293FAA3F3B3FA83F315
:100DFC0043F040035B09022B02D16B4B1A6A01E0F2
:100E0C00694B5A6A022393FAA3F3B3FA83F303F000
:100E1C001F0322FA03F313F0010FDAD1E369002B5D
:100E2C0000F0B680604A526802F00C02082A00F00A
:100E3C00B180022B6BD14FF0807393FAA3F3B3FA0A
:100E4C0083F39B0003F1844303F5840300221A60AF
:100E5C00FFF7A4FA054605E0FFF7A0FA401B0228AD
:100E6C0000F29A804FF0007393FAA3F34E4B1A687A
:100E7C004FF0007393FAA3F3B3FA83F303F01F0359
:100E8C0022FA03F313F0010FE6D1236AB3F5803F86
:100E9C0009D103F1804303F58833596821F40031FB
:100EAC00A2680A435A60404B596821F47411206AB5
:100EBC00626A02430A435A604FF0807393FAA3F3B9
:100ECC00B3FA83F39B0003F1844303F584030122FB
:100EDC001A60FFF763FA044604E0FFF75FFA001BA1
:100EEC0002285BD84FF0007393FAA3F32E4B1A68C9
:100EFC004FF0007393FAA3F3B3FA83F303F01F03D9
:100F0C0022FA03F313F0010FE7D0002049E04FF071
:100F1C00807393FAA3F3B3FA83F39B0003F1844336
:100F2C0003F5840300221A60FFF738FA044604E044
:100F3C00FFF734FA001B022832D84FF0007393FAF3
:100F4C00A3F3194B1A684FF0007393FAA3F3B3FA97
:100F5C0083F303F01F0322FA03F313F0010FE7D11D
:100F6C0000201EE001201CE003201AE0032018E002
:100F7C00012016E0032014E0032012E0032010E00F
:100F8C0003200EE003200CE003200AE0032008E01D
:100F9C00002006E0012004E0032002E0032000E032
:100FAC00032003B030BD00BF0010024000700040B1
:100FBC0030B486B01F4D02AC28686968AA68EB682B
:100FCC000FC42B8AADF804301B4B5B6803F00C028A
:100FDC00082A2AD103F470114FF4701292FAA2F27B
:100FEC00B2FA82F221FA02F206A90A4412F8102C83
:100FFC0013F4803F15D0104B596801F400314FF4B5
:10100C00003393FAA3F3B3FA83F321FA03F306A99B
:10101C000B4413F8143C0948B0FBF3F002FB00F04E
:10102C0004E0074800FB02F000E0044806B030BCC6
:10103C00704700BFEC2500080010024000127A0037
:10104C0000093D0070B504460D46734B1B6803F058
:10105C0007038B420BD2704B1A6822F007020A432B
:10106C001A601B6803F007038B4240F0C4802368AE
:10107C0013F0020F06D0694B596821F0F001A268F9
:10108C000A435A60236813F0010F75D06368012B73
:10109C0013D14FF4003292FAA2F2604A11684FF465
:1010AC00003292FAA2F2B2FA82F202F01F0221FA94
:1010BC0002F212F0010F27D19FE0022B13D14FF057
:1010CC00007292FAA2F2554A11684FF0007292FA2D
:1010DC00A2F2B2FA82F202F01F0221FA02F212F02C
:1010EC00010F11D18BE0022292FAA2F24B4A116845
:1010FC00022292FAA2F2B2FA82F202F01F0221FA52
:10110C0002F212F0010F7CD0444A516821F0030125
:10111C000B435360FFF742F906466368012B0ED16F
:10112C0006E0FFF73BF9801B41F2883398426AD8FE
:10113C003A4B5B6803F00C03042BF2D11CE0022B3E
:10114C0015D106E0FFF72AF9801B41F2883398424B
:10115C005BD8324B5B6803F00C03082BF2D10BE02D
:10116C00FFF71CF9801B41F2883398424FD82B4B68
:10117C005B6813F00C0FF3D1274B1B6803F00703CC
:10118C00AB420AD9244B1A6822F007022A431A6090
:10119C001B6803F00703AB423BD1236813F0040F29
:1011AC0006D01E4B596821F4E061E2680A435A608C
:1011BC00236813F0080F07D0184B5A6822F46052BA
:1011CC00216942EAC1025A60FFF7F2FE134B5A68DA
:1011DC0002F0F002F02393FAA3F3B3FA83F322FAAA
:1011EC0003F30F4AD35CD8400E4B18600020FFF776
:1011FC00A7F8002070BD012070BD012070BD01203A
:10120C0070BD012070BD032070BD032070BD032094
:10121C0070BD012070BD00BF0020024000100240D4
:10122C00482700080C000020014B1868704700BFCD
:10123C000C00002008B5FFF7F7FF084B5A6802F4C2
:10124C00E0624FF4E06393FAA3F3B3FA83F322FA68
:10125C0003F3034AD35CD84008BD00BF0010024022
:10126C005827000808B5FFF7DFFF084B5A6802F44F
:10127C0060524FF4605393FAA3F3B3FA83F322FA58
:10128C0003F3034AD35CD84008BD00BF00100240F2
:10129C00582700082DE9F84304460368196921F41E
:1012AC004051C2680A431A61826803691A43436950
:1012BC0042EA03010268D36823F4B05323F00C0311
:1012CC000B43D3600368596921F4407182690A4366
:1012DC005A6106685A4B9E4258D1FFF7C3FF00EB88
:1012EC00800000EB800063689B00B0FBF3F9554D68
:1012FC00A5FB09294FEA59194FEA0919FFF7B2FF63
:10130C0000EB800000EB800063689B00B0FBF3F8FF
:10131C00FFF7A8FF00EB800000EB800063689B00E8
:10132C00B0FBF3F3A5FB03235B09642707FB1388CE
:10133C004FEA081808F13208A5FB08384FEA58188C
:10134C0008F0F008C844FFF78DFF00EB800000EBBD
:10135C00800063689B00B0FBF3F9FFF783FF00EBA1
:10136C00800000EB800063689B00B0FBF3F3A5FBEF
:10137C0003235B0907FB13973F013237A5FB0735A6
:10138C00C5F343154544B560BDE8F883FFF752FF3C
:10139C0000EB800000EB800063689B00B0FBF3F96E
:1013AC00284DA5FB09294FEA59194FEA0919FFF7EE
:1013BC0041FF00EB800000EB800063689B00B0FBFA
:1013CC00F3F8FFF737FF00EB800000EB8000636859
:1013DC009B00B0FBF3F0A5FB00304009642707FB32
:1013EC0010884FEA081808F13208A5FB08284FEAC4
:1013FC00581808F0F008C844FFF71CFF00EB8000F9
:10140C0000EB800063689B00B0FBF3F9FFF712FF61
:10141C0000EB800000EB800063689B00B0FBF3F0F6
:10142C00A5FB0030400907FB10973F013237A5FBA5
:10143C000725C5F343154544B560BDE8F88300BFE7
:10144C00003801401F85EB512DE9F04106460C4652
:10145C0090461D46FEF7A2FF0746B8F1000F26D0B6
:10146C0053E0B5F1FF3F22D025B1FEF797FFC01B2B
:10147C00A8421CD93368DA6822F08002DA6033683B
:10148C00DA6822F02002DA603368DA6822F48072BB
:10149C00DA6033685A6922F001025A61012386F836
:1014AC003930002386F838300320BDE8F0813368EA
:1014BC001B682340A342D4D10020BDE8F081B5F1D4
:1014CC00FF3F22D025B1FEF769FFC01BA8421CD9F3
:1014DC003368DA6822F08002DA603368DA6822F066
:1014EC002002DA603368DA6822F48072DA603368DA
:1014FC005A6922F001025A61012386F8393000231F
:10150C0086F838300320BDE8F08133681B6823402F
:10151C00A342D4D00020BDE8F08100BF10B5044632
:10152C0048B390F8393013F0FF0F04D1002380F842
:10153C00383000F0E1FB022384F839302368DA6894
:10154C0022F40052DA602046FFF7A4FE23681A69E1
:10155C0022F490421A6123685A6922F02A025A61D5
:10156C002368DA6842F40052DA600020E063012359
:10157C0084F8393010BD012010BD00BF70B5044691
:10158C000D461E4690F83930DBB2012B01D0222BD0
:10159C0059D1002D59D0002A59D094F83830012B4C
:1015AC0057D0012384F838300023E36394F83930A2
:1015BC00DBB2222B03D1322384F8393002E0122320
:1015CC0084F83930A284E28423E0013AE284A268F0
:1015DC00B2F5805F12D12046802100223346FFF7FE
:1015EC0033FF002837D123682A88C2F308025A60D7
:1015FC0023690BB902350CE001350AE02046802145
:10160C0000223346FFF720FF38BB23682A785A6044
:10161C000135E28C002AD8D1204640213346FFF711
:10162C0013FF0346D8B994F83920D2B2322A03D129
:10163C00222284F8392002E0012284F83920002289
:10164C0084F838200CE002230AE0012308E001238F
:10165C0006E0022304E0032302E0032300E003235B
:10166C00184670BDFEE700BF08B50D4B1B6813B9DB
:10167C000C4A0B4B1A600A4B1B68033020F003001A
:10168C001844094A904206D900F08AFB0C230360E7
:10169C004FF0FF3008BD024A1060184608BD00BF6D
:1016AC008000002018020020004C00200123036061
:1016BC00014B0B60704700BF040000200FB400B555
:1016CC0083B004AB53F8042B01930848802100F03D
:1016DC00A7FB011E03DD054800F00AF80146084689
:1016EC0003B05DF804EB04B0704700BF8800002025
:1016FC004FF0FF30704700BF08B500F087F8024B81
:10170C00024A9A6008BD00BF00ED00E0000000082E
:10171C0008B500F0A1F808BDF8B504460D4617460B
:10172C001E462648FFF7CAFF25482168FFF7C6FF6B
:10173C0024486168FFF7C2FF2348A168FFF7BEFF8A
:10174C002248E168FFF7BAFF21482169FFF7B6FF8D
:10175C0020486169FFF7B2FF1F48A169FFF7AEFF90
:10176C001E48E169FFF7AAFF1D48FFF7A7FF1D48B8
:10177C002946FFF7A3FF1C4CE16A1C48FFF79EFFAC
:10178C00216B1B48FFF79AFFE16B1A48FFF796FF96
:10179C0015F0800F03D018483946FFF78FFF15F46A
:1017AC00004F03D015483146FFF788FF1448FFF768
:1017BC0085FF14480699FFF781FFF8BD0026000845
:1017CC0010260008202600083026000840260008B5
:1017DC0050260008602600087026000880260008A5
:1017EC00902600089C26000800ED00E0AC260008BE
:1017FC00BC260008CC260008DC260008EC260008D5
:10180C00FC26000804270008FFF7FEBF0F4B1A68E0
:10181C0042F001021A6059680D4A0A405A601A686F
:10182C0022F0847222F480321A601A6822F4802228
:10183C001A605A6822F4FE025A604FF41F029A6032
:10184C004FF00062034B9A60704700BF00100240DB
:10185C000000FFF800ED00E01F4B5B6803F00C0389
:10186C00042B06D0082B08D03BBB1C4A1C4B1A601F
:10187C0026E01A4A1A4B1A6022E0174B5A685B682A
:10188C00C2F38342023213F4803F05D1154B03FBA4
:10189C0002F2134B1A6013E00F4B5B6813F4003F1A
:1018AC0005D0104B03FB02F20D4B1A6008E00B4BFA
:1018BC0003FB02F20A4B1A6002E0084A084B1A605A
:1018CC00054B5B68C3F30313074AD15C044B1A68DE
:1018DC00CA401A60704700BF0010024000127A0024
:1018EC000C00002000093D004827000830B589B0E5
:1018FC00244B9A6942F010029A619A6902F0100224
:10190C000092009A9A6942F020029A619A6902F058
:10191C0020020192019A9A6942F004029A619A6932
:10192C0002F004020292029A9A6942F008029A6149
:10193C009B6903F008030393039B134D2846202156
:10194C000022FFF725F84FF4005304930F4B059337
:10195C00002406940E4804A9FEF72AFF20230493C2
:10196C000123059302230793284604A9FEF720FFC1
:10197C00282021462246FEF7B1FE2820FEF7E0FE85
:10198C0009B030BD001002400008014000002110D9
:10199C0000100140FEE700BF08B51548154B036366
:1019AC00154B4363154B036008234360002383608E
:1019BC00C3604FF48032026143618361C36103628F
:1019CC0043628362C362FEF7FDFC18B10C48D92157
:1019DC00FFF7E0FF064B1A6B22211160196B0022F6
:1019EC008A60196BCA601B6B02221A6108BD00BFAA
:1019FC005401002008010020240100200064004054
:101A0C006027000808B50B480B4B03604FF4E1331B
:101A1C00436000238360C36003610C2242618361D5
:101A2C00C361FFF77BFD18B10448F121FFF7B2FF4A
:101A3C0008BD00BF94010020003801406027000859
:101A4C0008B50B480B4B03604FF4E13343600023A4
:101A5C008360C36003610C2242618361C361FFF741
:101A6C005DFD20B104484FF48271FFF793FF08BD70
:101A7C00D4010020004400406027000800B591B05C
:101A8C000223069301220A9210220B920D9300233B
:101A9C000E930F9306A8FEF78FFF18B11448A521DB
:101AAC00FFF778FF0F230193022302930021039188
:101ABC004FF480630493059101A8FFF7C3FA18B1A2
:101ACC000B48B321FFF766FFFFF7AEFB094BA3FBF7
:101ADC0000208009FEF740FE0420FEF753FE4FF075
:101AEC00FF3000210A46FEF7F9FD11B05DF804FB4A
:101AFC0060270008D34D621038B5FEF735FCFFF7B0
:101B0C00BDFFFFF7F3FEFFF747FFFFF77BFFFFF784
:101B1C0097FF3348036B7D221A75026BFF235375B5
:101B2C00026B9375026BD375026B1376026B537653
:101B3C00026B9376026BD3764FF47A71FEF7DAFC74
:101B4C00012816D1274800F03AF9274D82B22846D1
:101B5C0026494FF0FF33FFF711FD254C204600F0CE
:101B6C002EF982B2284621464FF0FF33FFF706FDCF
:101B7C0031E0032817D11F4C204600F020F91A4DF4
:101B8C0082B2284621464FF0FF33FFF7F7FC184C82
:101B9C00204600F014F982B2284621464FF0FF335C
:101BAC00FFF7ECFC17E0B0B9134C204600F007F936
:101BBC000D4D82B2284621464FF0FF33FFF7DEFC75
:101BCC000B4C204600F0FBF882B2284621464FF021
:101BDC00FF33FFF7D3FC4FF47A70FEF7E5FB98E781
:101BEC005401002070270008D4010020842700082D
:101BFC00982700089C270008A427000800B583B08C
:101C0C00204B9A6942F001029A619B6903F001032F
:101C1C000193019B0320FEF74FFD6FF00B00002199
:101C2C000A46FEF75BFD6FF00A0000210A46FEF73C
:101C3C0055FD6FF0090000210A46FEF74FFD6FF0CD
:101C4C00040000210A46FEF749FD6FF00300002155
:101C5C000A46FEF743FD6FF0010000210A46FEF72D
:101C6C003DFD4FF0FF3000210A46FEF737FD064BD5
:101C7C005A6822F0E06242F000725A6003B05DF8DC
:101C8C0004FB00BF001002400000014010B586B0FC
:101C9C000268164B9A4227D103F5D633DA6942F023
:101CAC000072DA61DB6903F000730193019B4FF45E
:101CBC00807302930023039304930D4C204602A9D6
:101CCC00FEF776FD4FF40073029302230393032374
:101CDC000593204602A9FEF76BFD064B5A6822F4C9
:101CEC00C04242F480425A6006B010BD006400400D
:101CFC00000C01400000014010B586B003681E4A7C
:101D0C00934220D11D4B9A6942F480429A619B699F
:101D1C0003F480430093009B4FF40073029302235F
:101D2C00039303230593164C204602A9FEF740FDAE
:101D3C004FF480630293002303930493204602A97B
:101D4C00FEF736FD15E00F4A934212D10B4BDA69C0
:101D5C0042F40032DA61DB6903F400330193019B36
:101D6C000C230293022303930593054802A9FEF763
:101D7C001FFD06B010BD00BF00380140001002402E
:101D8C00000801400044004008B5FEF7FFFAFEF7DA
:101D9C000BFD08BD08B54FF40050FEF701FE08BD61
:101DAC00014B1868704700BF7000002010B500236D
:101DBC00934203D0CC5CC4540133F9E710BD034605
:101DCC0013F8012B002AFBD1181A0138704730B5D3
:101DDC00141E9BB0054604DA8B2303604FF0FF30D2
:101DEC001CE04FF4027200910491ADF80C2014BF6A
:101DFC0004F1FF3121464FF6FF7202910591ADF8C7
:101E0C000E2069461A461E9B00F076F8431CBCBF98
:101E1C008B232B6014B1009B00221A701BB030BDB9
:101E2C0073B50093054B06460D46144618683146AB
:101E3C002A462346FFF7CBFF02B070BD700000208E
:101E4C002DE9F0478D688146AB420C4692461F4601
:101E5C0043D38B8913F4906F3DD026680969022215
:101E6C00C1EB0608666906EB460696FBF2F608F12E
:101E7C0001023A44964238BF16465B050FD53146EF
:101E8C0000F01AFB054698B121694246FFF78EFF18
:101E9C00A38923F4906343F08003A38113E03246BB
:101EAC0000F05EFB054670B94846216900F0C0FAA7
:101EBC000C23C9F80030A3894FF0FF3043F04003E6
:101ECC00A381BDE8F087256166614544C8EB060631
:101EDC002560A6603D46AF4200D23D462A462068AA
:101EEC00514600F089FAA36800205B1BA3602368AD
:101EFC001D442560BDE8F0872DE9F0439DB00393A8
:101F0C008B8907461C060D4616460CD50B6953B932
:101F1C00402100F0D1FA2860286110B90C233B60F5
:101F2C00C7E040236B610023099320238DF82930EF
:101F3C0030238DF82A3033461C4613F8012B1AB97E
:101F4C00B4EB06090FD002E0252AF5D1F8E73846A4
:101F5C00294632464B46FFF773FF013000F0A48050
:101F6C00099B4B4409932378002B00F09D800023A0
:101F7C004FF0FF3204930793059206938DF853307C
:101F8C001A9304F101094D4E4C4630462178052236
:101F9C0000F024FA09F10109049B28B1861B0120E9
:101FAC00B04003430493EEE7D90644BF20228DF8DA
:101FBC0053201A0744BF2B228DF8532022782A2A4B
:101FCC0002D0079B21460EE0039A111D1268039163
:101FDC00002A01DB079204E0524243F0020307920D
:101FEC00049301340AE00C4622780131303A092A74
:101FFC0003D80A2000FB0323F5E7079323782E2B45
:10200C0019D163782A2B09D1039B02341A1D1B6842
:10201C000392002BB8BF4FF0FF330BE0611C002381
:10202C000C4622780131303A092A03D80A2000FBE9
:10203C000323F5E70593224E21783046032200F066
:10204C00CDF930B1861B4020B040049B01340343D2
:10205C00049321781B480622661C8DF8281000F08A
:10206C00BDF988B1184B33B9039B073323F0070331
:10207C000833039314E003AB0093384604A92A46B3
:10208C00124BAFF3008007E003AB0093384604A972
:10209C002A460E4B00F08EF8B0F1FF3F804603D07D
:1020AC00099B4344099346E7AB895B0601D4099825
:1020BC0001E04FF0FF301DB0BDE8F083AE27000803
:1020CC00B4270008B8270008000000004D1E0008C7
:1020DC002DE9F84315461F468A680B6906469A4255
:1020EC00A8BF13462B6091F843200C46DDF82080E6
:1020FC000AB101332B602368990602D52B68023391
:10210C002B60236813F006091DD094F84330226825
:10211C00003318BF012392061FD5E118302081F837
:10212C0043005A1C94F845102244023382F84310A1
:10213C0013E03046394604F119020123C04701303F
:10214C0007D009F10109E2682B68D31A9945F0DB35
:10215C00DBE74FF0FF30BDE8F8833046394604F139
:10216C004302C0470130F4D023682A6803F0060309
:10217C00E168042B08BFC2EB01052369A2680CBF00
:10218C0025EAE57500259A42C4BFC3EB0203ED189E
:10219C004FF00009A9450ADA3046394604F11A0213
:1021AC000123C0470130D4D009F10109F2E7002026
:1021BC00BDE8F8832DE9FF470E7E80466E2E0C4657
:1021CC0091469A460C9D01F1430000F0A58011D870
:1021DC00632E22D009D8002E00F0AF80582E40F08C
:1021EC00BF8081F845607B4A4FE0642E1ED0692E7B
:1021FC001CD0B5E0732E00F0A48009D86F2E2BD024
:10220C00702E40F0AD800B6843F020030B6038E07B
:10221C00752E21D0782E34D0A2E02B6801F1420724
:10222C001A1D1B682A6081F842309DE022682B68D9
:10223C0012F0800F03D01A1D2A601D6805E05106AC
:10224C00F9D51A1D2A60B3F90050002D39DA2D2367
:10225C006D4284F8433034E022682B6812F0800F12
:10226C0003D01A1D2A601D6804E05206F9D51A1D08
:10227C002A601D88237E574A6F2B14BF0A2308231C
:10228C001BE07823544A84F845302368296813F0FE
:10229C00800F01F104062E6001D00D6802E05F068C
:1022AC00FBD50D88DE0744BF43F0200323601DB926
:1022BC00236823F0200323601023002184F84310AB
:1022CC0001E0444A0A236668002EA66003DB2168FD
:1022DC0021F00401216005B96EB104F14201B5FB96
:1022EC00F3F603FB1655555D0F4601F801593546BB
:1022FC00002EF4D100E00746082B0AD12368DD0735
:10230C0007D5626823699A4203DC302307F8013C45
:10231C00013FC01B20612CE009682B6811F0800F75
:10232C00626904D0191D29601B681A6005E0490612
:10233C00F8D5191D29601B681A80002323610746F4
:10234C0017E02B681A1D2A601F683846FFF737FD07
:10235C0063682061984288BF23612369636005E04C
:10236C0004F1420784F8426001232361002384F8BE
:10237C004330CDF800A04046214603AA4B46FFF758
:10238C00A7FE013002D14FF0FF301FE04046494616
:10239C003A462369D0470130F5D023689B0705D412
:1023AC00E068039B9842B8BF18460FE00025E2682E
:1023BC00039BD31A9D42F3DA4046494604F11902B5
:1023CC000123D0470130DED00135F0E704B0BDE881
:1023DC00F08700BFBF270008D027000810B5C9B28E
:1023EC0002449042034605D01C7801308C42F8D14F
:1023FC00184610BD002010BD814270B501D30023DA
:10240C000EE08C18A042FAD28518134613F1FF3354
:10241C0005D351426618F65C2944CE54F6E770BDDC
:10242C00934203D0CC5CC4540133F9E770BD000077
:10243C0030B500293CD051F8042C0B1F1D49002A43
:10244C00B8BF9B180A680C4612B95A600B6030BDB5
:10245C0093420DD219685818904203D15A5811441E
:10246C00426819605A60236030BD994203D80A460D
:10247C0051680029F9D1146815199D420AD11B68BD
:10248C002344D0188842136012D1086803441360A7
:10249C004B680CE002D90C23036030BD18681C1883
:1024AC008C4203D10C684968204418605960536011
:1024BC0030BD00BF4C01002070B5CD1C25F00305CC
:1024CC0008350C2D38BF0C25002D06463FDB8D4200
:1024DC003DD3214B1C6818462146A1B10B685B1BF0
:1024EC000ED40B2B03D90B60CC18CD501FE08C42B3
:1024FC0002D1626802601AE04B6863600C4616E019
:10250C000C464968E9E7154C23681BB9304600F0C6
:10251C004DF820602946304600F048F8431C01462F
:10252C0015D0C41C24F0030484420AD1256004F1A4
:10253C000B00231D20F00700C31A0BD05A42E250A7
:10254C0070BD3046611A00F031F80130EED10C2329
:10255C003360002070BD00BF4C01002048010020FA
:10256C00F8B5064614460D4621B91146BDE8F840AB
:10257C00FFF7A2BF1AB9FFF75BFF2046F8BD00F0CA
:10258C0025F8A0420ED230462146FFF795FF0746AC
:10259C0050B129462246FFF709FC30462946FFF781
:1025AC0047FF01E02846F8BD3846F8BD38B5064C63
:1025BC000023054608462360FFF756F8431C02D15A
:1025CC00236803B12B6038BD5001002051F8040C76
:1025DC00002802DA04390B581844043870470000FC
:1025EC0002030405060708090A0B0C0D0E0F101048
:1025FC0001020000537461636B206672616D653A71
:10260C000A000000205230203D2020253038580A86
:10261C0000000000205231203D2020253038580A7F
:10262C0000000000205232203D2020253038580A6E
:10263C0000000000205233203D2020253038580A5D
:10264C000000000020523132203D20253038580A3D
:10265C0000000000204C52203D2020253038580A24
:10266C0000000000205043203D2020253038580A1F
:10267C000000000020505352203D20253038580ACD
:10268C00000000004653522F4641523A0A00000007
:10269C002043465352203D2020253038580A000054
:1026AC002048465352203D2020253038580A00003F
:1026BC002044465352203D2020253038580A000033
:1026CC002041465352203D2020253038580A000026
:1026DC00204D4D464152203D20253038580A0000EF
:1026EC002042464152203D2020253038580A000017
:1026FC004D6973630A000000204C522F4558435F0C
:10270C0052455455524E3D20253038580A00000091
:10271C005B486172644661756C745D0A0000000070
:10272C005B4275734661756C745D0A005B55736131
:10273C0067654661756C745D0A000000000000005E
:10274C000000000001020304060708090000000055
:10275C00010203042E2E2F7372632F6D61696E2E8E
:10276C00630000004661696C656420746F207265BB
:10277C0063656976650000004661696C6564207468
:10278C006F207472616E736D697400000A0D000025
:10279C0054696D656F75740053756363657373006D
:1027AC004300232D302B2000686C4C006566674578
:1027BC0046470030313233343536373839414243AD
:1027CC00444546003031323334353637383961625E
:0527DC00636465660066
:1027E40078563412840000200000000000A24A043D
:1027F40000000000000000000000000000000000D5
:1028040000000000000000000000000000000000C4
:10281400AC270008000000000000000000000000D9
:1028240000000000000000000000000000000000A4
:102834000000000000000000000000000000000094
:102844000000000000000000000000000000000084
:082854001000002032547698B8
:040000050800010DE1
:00000001FF
